:020000020000FC
:0200000018C026
:1000300009C500E10EBF0FEF0DBF0E9426000E9410
:1000400029050E940F050E945600FDCF00E00BB964
:1000500008E10AB906E80093950000E000939000DB
:1000600003E309B908955D9BFECF0CB90895A0E0A4
:10007000B2E024E20D91021721F00E9433000C94AB
:100080003A0008955F9BFECF1CB10895C0E0D4E014
:1000900024E20E944200121719F019930C944900AF
:1000A0004AE049934DE0499329930895E0E0FAE04E
:1000B000A0E0B2E024E235913D93321711F00C94A8
:1000C0005B000E9437000E944600E6E1FAE0B2E0E1
:1000D000A0E035913D93321711F00C9469000E9415
:1000E0003700A0E0B2E0C0E0D4E049914D93421760
:0C00F00011F00C9475000E943700089578
:100A00005768617420697320796F7572206E616D0B
:100A100065203F0A0D2448656C6C6F2024000FEFA1
:100A20000ABB07BB40E04FBD4DBD4CBD4EE14BBDC9
:100A300044E84ABD4DE04EBD50E060E040E147BFB4
:100A4000789408958894539509F463955BBB68BBCB
:060A50001895789408954A
:00000001FF
