:020000020000FC
:0200000026C018
:0200480036C0C0
:10004C003BC000E10EBF0FEF0DBF06E00093950023
:10005C0003E309B90FEF07BB0ABB7894E0E0FAE0C1
:10006C00E0E0FAE0C0E0D2E00E943D00FFCFE0E02B
:10007C00FAE0A0E0B2E024E235913D93321711F0A2
:10008C000C944200A0E0B2E008E20AB9E6E1FAE022
:10009C00A0E0B3E03591343219F03D930C9450004C
:1000AC0000E9A0E0B3E008E208952CB12D932432CE
:1000BC0011F400E00AB918951D9118BB1CB9143243
:0800CC0011F400E00AB91895D7
:100A00005768617420697320796F7572206E616D0B
:0E0A100065203F0A0D2448656C6C6F202400A1
:00000001FF
