:020000020000FC
:1000000000E10EBF0FEF0DBF0E9409000E943900F2
:10001000FDCF00E00BB908E10AB906E800939500AE
:1000200000E00093900003E309B908955D9BFECFC3
:100030000CB90895A0E0B2E024E20D91021721F07E
:100040000E9416000C941D0008955F9BFECF1CB10A
:100050000895C0E0D4E024E20E942500121719F0B0
:1000600019930C942C004AE049934DE0499329934D
:100070000895E0E0FAE0A0E0B2E024E235913D939B
:10008000321711F00C943E000E941A000E942900C1
:10009000E6E1FAE0B2E0A0E035913D93321711F0CD
:1000A0000C944C000E941A00A0E0B2E0C0E0D4E042
:1000B00049914D93421711F00C9458000E941A0078
:0200C0000895A1
:100A00005768617420697320796F7572206E616D0B
:0E0A100065203F0A0D2448656C6C6F202400A1
:00000001FF
